{
  "_format": "hh-sol-artifact-1",
  "contractName": "TokenizedBallot",
  "sourceName": "contracts/TokenizedBallot.sol",
  "abi": [
    {
      "inputs": [
        {
          "internalType": "bytes32[]",
          "name": "proposalNames",
          "type": "bytes32[]"
        },
        {
          "internalType": "address",
          "name": "_tokenContract",
          "type": "address"
        },
        {
          "internalType": "uint256",
          "name": "_targetBlockNumber",
          "type": "uint256"
        }
      ],
      "stateMutability": "nonpayable",
      "type": "constructor"
    },
    {
      "inputs": [],
      "name": "owner",
      "outputs": [
        {
          "internalType": "address",
          "name": "",
          "type": "address"
        }
      ],
      "stateMutability": "view",
      "type": "function"
    },
    {
      "inputs": [
        {
          "internalType": "uint256",
          "name": "",
          "type": "uint256"
        }
      ],
      "name": "proposals",
      "outputs": [
        {
          "internalType": "bytes32",
          "name": "name",
          "type": "bytes32"
        },
        {
          "internalType": "uint256",
          "name": "voteCount",
          "type": "uint256"
        }
      ],
      "stateMutability": "view",
      "type": "function"
    },
    {
      "inputs": [
        {
          "internalType": "uint256",
          "name": "_targetBlockNumber",
          "type": "uint256"
        }
      ],
      "name": "setTargetBlockNumber",
      "outputs": [],
      "stateMutability": "nonpayable",
      "type": "function"
    },
    {
      "inputs": [],
      "name": "targetBlockNumber",
      "outputs": [
        {
          "internalType": "uint256",
          "name": "",
          "type": "uint256"
        }
      ],
      "stateMutability": "view",
      "type": "function"
    },
    {
      "inputs": [],
      "name": "tokenContract",
      "outputs": [
        {
          "internalType": "contract IMyToken",
          "name": "",
          "type": "address"
        }
      ],
      "stateMutability": "view",
      "type": "function"
    },
    {
      "inputs": [
        {
          "internalType": "uint256",
          "name": "proposal",
          "type": "uint256"
        },
        {
          "internalType": "uint256",
          "name": "amount",
          "type": "uint256"
        }
      ],
      "name": "vote",
      "outputs": [],
      "stateMutability": "nonpayable",
      "type": "function"
    },
    {
      "inputs": [
        {
          "internalType": "address",
          "name": "account",
          "type": "address"
        }
      ],
      "name": "votingPower",
      "outputs": [
        {
          "internalType": "uint256",
          "name": "",
          "type": "uint256"
        }
      ],
      "stateMutability": "view",
      "type": "function"
    },
    {
      "inputs": [
        {
          "internalType": "address",
          "name": "",
          "type": "address"
        }
      ],
      "name": "votingPowerSpent",
      "outputs": [
        {
          "internalType": "uint256",
          "name": "",
          "type": "uint256"
        }
      ],
      "stateMutability": "view",
      "type": "function"
    },
    {
      "inputs": [],
      "name": "winnerName",
      "outputs": [
        {
          "internalType": "bytes32",
          "name": "winnerName_",
          "type": "bytes32"
        }
      ],
      "stateMutability": "view",
      "type": "function"
    },
    {
      "inputs": [],
      "name": "winningProposal",
      "outputs": [
        {
          "internalType": "uint256",
          "name": "winningProposal_",
          "type": "uint256"
        }
      ],
      "stateMutability": "view",
      "type": "function"
    }
  ],
  "bytecode": "0x60806040523480156200001157600080fd5b5060405162001002380380620010028339818101604052810190620000379190620003c4565b336000806101000a81548173ffffffffffffffffffffffffffffffffffffffff021916908373ffffffffffffffffffffffffffffffffffffffff16021790555081600260006101000a81548173ffffffffffffffffffffffffffffffffffffffff021916908373ffffffffffffffffffffffffffffffffffffffff1602179055508060038190555060005b8351811015620001565760016040518060400160405280868481518110620000ef57620000ee6200043f565b5b60200260200101518152602001600081525090806001815401808255809150506001900390600052602060002090600202016000909190919091506000820151816000015560208201518160010155505080806200014d906200049d565b915050620000c2565b50505050620004ea565b6000604051905090565b600080fd5b600080fd5b600080fd5b6000601f19601f8301169050919050565b7f4e487b7100000000000000000000000000000000000000000000000000000000600052604160045260246000fd5b620001c48262000179565b810181811067ffffffffffffffff82111715620001e657620001e56200018a565b5b80604052505050565b6000620001fb62000160565b9050620002098282620001b9565b919050565b600067ffffffffffffffff8211156200022c576200022b6200018a565b5b602082029050602081019050919050565b600080fd5b6000819050919050565b620002578162000242565b81146200026357600080fd5b50565b60008151905062000277816200024c565b92915050565b6000620002946200028e846200020e565b620001ef565b90508083825260208201905060208402830185811115620002ba57620002b96200023d565b5b835b81811015620002e75780620002d2888262000266565b845260208401935050602081019050620002bc565b5050509392505050565b600082601f83011262000309576200030862000174565b5b81516200031b8482602086016200027d565b91505092915050565b600073ffffffffffffffffffffffffffffffffffffffff82169050919050565b6000620003518262000324565b9050919050565b620003638162000344565b81146200036f57600080fd5b50565b600081519050620003838162000358565b92915050565b6000819050919050565b6200039e8162000389565b8114620003aa57600080fd5b50565b600081519050620003be8162000393565b92915050565b600080600060608486031215620003e057620003df6200016a565b5b600084015167ffffffffffffffff8111156200040157620004006200016f565b5b6200040f86828701620002f1565b9350506020620004228682870162000372565b92505060406200043586828701620003ad565b9150509250925092565b7f4e487b7100000000000000000000000000000000000000000000000000000000600052603260045260246000fd5b7f4e487b7100000000000000000000000000000000000000000000000000000000600052601160045260246000fd5b6000620004aa8262000389565b91507fffffffffffffffffffffffffffffffffffffffffffffffffffffffffffffffff8203620004df57620004de6200046e565b5b600182019050919050565b610b0880620004fa6000396000f3fe608060405234801561001057600080fd5b506004361061009e5760003560e01c80638da5cb5b116100665780638da5cb5b1461014a578063a720035114610168578063b384abef14610198578063c07473f6146101b4578063e2ba53f0146101e45761009e565b8063013cf08b146100a35780632a8cd29e146100d457806332da83e8146100f257806355a373d61461010e578063609ff1bd1461012c575b600080fd5b6100bd60048036038101906100b89190610601565b610202565b6040516100cb929190610656565b60405180910390f35b6100dc610236565b6040516100e9919061067f565b60405180910390f35b61010c60048036038101906101079190610601565b61023c565b005b6101166102d4565b6040516101239190610719565b60405180910390f35b6101346102fa565b604051610141919061067f565b60405180910390f35b610152610382565b60405161015f9190610755565b60405180910390f35b610182600480360381019061017d919061079c565b6103a6565b60405161018f919061067f565b60405180910390f35b6101b260048036038101906101ad91906107c9565b6103be565b005b6101ce60048036038101906101c9919061079c565b61049f565b6040516101db919061067f565b60405180910390f35b6101ec610592565b6040516101f99190610809565b60405180910390f35b6001818154811061021257600080fd5b90600052602060002090600202016000915090508060000154908060010154905082565b60035481565b60008054906101000a900473ffffffffffffffffffffffffffffffffffffffff1673ffffffffffffffffffffffffffffffffffffffff163373ffffffffffffffffffffffffffffffffffffffff16146102ca576040517f08c379a00000000000000000000000000000000000000000000000000000000081526004016102c1906108a7565b60405180910390fd5b8060038190555050565b600260009054906101000a900473ffffffffffffffffffffffffffffffffffffffff1681565b6000806000905060005b60018054905081101561037d578160018281548110610326576103256108c7565b5b906000526020600020906002020160010154111561036a5760018181548110610352576103516108c7565b5b90600052602060002090600202016001015491508092505b808061037590610925565b915050610304565b505090565b60008054906101000a900473ffffffffffffffffffffffffffffffffffffffff1681565b60046020528060005260406000206000915090505481565b806103c83361049f565b1015610409576040517f08c379a0000000000000000000000000000000000000000000000000000000008152600401610400906109df565b60405180910390fd5b80600460003373ffffffffffffffffffffffffffffffffffffffff1673ffffffffffffffffffffffffffffffffffffffff168152602001908152602001600020600082825461045891906109ff565b925050819055508060018381548110610474576104736108c7565b5b9060005260206000209060020201600101600082825461049491906109ff565b925050819055505050565b6000600460008373ffffffffffffffffffffffffffffffffffffffff1673ffffffffffffffffffffffffffffffffffffffff16815260200190815260200160002054600260009054906101000a900473ffffffffffffffffffffffffffffffffffffffff1673ffffffffffffffffffffffffffffffffffffffff16633a46b1a8846003546040518363ffffffff1660e01b8152600401610540929190610a33565b602060405180830381865afa15801561055d573d6000803e3d6000fd5b505050506040513d601f19601f820116820180604052508101906105819190610a71565b61058b9190610a9e565b9050919050565b6000600161059e6102fa565b815481106105af576105ae6108c7565b5b906000526020600020906002020160000154905090565b600080fd5b6000819050919050565b6105de816105cb565b81146105e957600080fd5b50565b6000813590506105fb816105d5565b92915050565b600060208284031215610617576106166105c6565b5b6000610625848285016105ec565b91505092915050565b6000819050919050565b6106418161062e565b82525050565b610650816105cb565b82525050565b600060408201905061066b6000830185610638565b6106786020830184610647565b9392505050565b60006020820190506106946000830184610647565b92915050565b600073ffffffffffffffffffffffffffffffffffffffff82169050919050565b6000819050919050565b60006106df6106da6106d58461069a565b6106ba565b61069a565b9050919050565b60006106f1826106c4565b9050919050565b6000610703826106e6565b9050919050565b610713816106f8565b82525050565b600060208201905061072e600083018461070a565b92915050565b600061073f8261069a565b9050919050565b61074f81610734565b82525050565b600060208201905061076a6000830184610746565b92915050565b61077981610734565b811461078457600080fd5b50565b60008135905061079681610770565b92915050565b6000602082840312156107b2576107b16105c6565b5b60006107c084828501610787565b91505092915050565b600080604083850312156107e0576107df6105c6565b5b60006107ee858286016105ec565b92505060206107ff858286016105ec565b9150509250929050565b600060208201905061081e6000830184610638565b92915050565b600082825260208201905092915050565b7f4f6e6c79206f776e65722063616e206368616e6765207468652074617267657460008201527f20626c6f636b206e756d62657200000000000000000000000000000000000000602082015250565b6000610891602d83610824565b915061089c82610835565b604082019050919050565b600060208201905081810360008301526108c081610884565b9050919050565b7f4e487b7100000000000000000000000000000000000000000000000000000000600052603260045260246000fd5b7f4e487b7100000000000000000000000000000000000000000000000000000000600052601160045260246000fd5b6000610930826105cb565b91507fffffffffffffffffffffffffffffffffffffffffffffffffffffffffffffffff8203610962576109616108f6565b5b600182019050919050565b7f546f6b656e697a656442616c6c6f743a20747279696e6720746f20766f74652060008201527f6d6f7265207468616e20616c6c6f776564000000000000000000000000000000602082015250565b60006109c9603183610824565b91506109d48261096d565b604082019050919050565b600060208201905081810360008301526109f8816109bc565b9050919050565b6000610a0a826105cb565b9150610a15836105cb565b9250828201905080821115610a2d57610a2c6108f6565b5b92915050565b6000604082019050610a486000830185610746565b610a556020830184610647565b9392505050565b600081519050610a6b816105d5565b92915050565b600060208284031215610a8757610a866105c6565b5b6000610a9584828501610a5c565b91505092915050565b6000610aa9826105cb565b9150610ab4836105cb565b9250828203905081811115610acc57610acb6108f6565b5b9291505056fea2646970667358221220c9ea8aefad62c7a734d4394fee959da5819c17754eafbaaef0e7b3235055bd9764736f6c63430008130033",
  "linkReferences": {},
  "deployedLinkReferences": {}
}